:100000000C942A000C9447000C9447000C94470071
:100010000C9447000C9447000C9447000C94470044
:100020000C9447000C942F010C9447000C9447004B
:100030000C9447000C9447000C9447000C94470024
:100040000C9447000C9447000C9447000C94470014
:100050000C94470011241FBECFE5D4E0DEBFCDBF16
:1000600010E0A0E6B0E0E8EBF7E002C005900D92EA
:10007000A038B107D9F720E0A0E8B0E001C01D9298
:10008000A638B207E1F70E9483010C94DA030C94BE
:10009000000084FF04C09BB390649BBB03C09BB370
:1000A0009F7B9BBBE7E5F2E03197F1F700C00000D2
:1000B0009BB390619BBBF8E2FA95F1F798B39B7103
:1000C00098BB80FF03C098B3946098BB81FF03C0C6
:1000D00098B3906298BB82FF03C098B3906498BBBA
:1000E00083FF03C088B3806888BB88EC8A95F1F7EA
:1000F0008BB38F7E8BBB98E29A95F1F708958AB304
:1001000080658ABB87B3846E87BB8BB38F7E8BBBC6
:100110008BB38F7B8BBB87EC9FEA0197F1F700C015
:10012000000083E00E9449008FE295E70197F1F714
:1001300000C0000083E00E94490087EB9BE001972C
:10014000F1F700C0000083E00E94490087EB9BE0CC
:100150000197F1F700C0000082E00E94490082E0B0
:100160000E94490088E00E94490080E00E94490006
:100170008CE00E94490080E00E94490081E00E94DA
:10018000490080E00E94490086E00E94490087EB18
:100190009BE00197F1F700C0000064ED70E080E0A3
:1001A00090E00E94A5030895CF93C62F862F8295D5
:1001B0008F7080610E9449008C2F8F7080610E9437
:1001C0004900CF910895CF93C62F8111C05C8C2F29
:1001D00082958F7088600E9449008C2F8F700E94DA
:1001E0004900CF910895CF93DF930E947F0083B79A
:1001F0008F7B83BF83B7836183BFC0E0D0E023C020
:100200002FEF82E597E0215080409040E1F700C059
:10021000000060E081E00E94E300DF93CF9380E67E
:1002200090E09F938F930E94AE039FEF22E587E0BB
:10023000915020408040E1F700C0000021960F90CF
:100240000F900F900F90C431D105D4F280918000AF
:1002500082BF89B7816089BFDF91CF9108951F92D6
:100260000F920FB60F9211242F933F934F935F93EA
:100270006F937F938F939F93AF93BF93EF93FF936E
:100280008091800082BFC99904C0109280000E94B2
:10029000F300FF91EF91BF91AF919F918F917F916B
:1002A0006F915F914F913F912F910F900FBE0F90E3
:1002B0001F9018958AB38F7D8ABB8BB38F7D8BBBC4
:1002C0008AB38D7F8ABB8BB383608BBB84B38FEF84
:1002D00084BB85B3806885BB089586B1806886B984
:1002E00086B1806286B986B1876086B980B78F7122
:1002F00080BF87B1856087B987B1806487B987B1CE
:10030000806287B90895F8940E945A010E946D0195
:100310000E94F3000E947F00789486B1806486B9C1
:1003200018C085B1809381008091810085BB60E019
:1003300080E00E94E300809181001F928F9381E70B
:1003400090E09F938F930E94AE030F900F900F90B9
:100350000F903499E6CFFDCF8F929F92AF92BF92CC
:10036000CF92DF92EF92FF920F931F93CF93DF9381
:10037000C82FD92F8B016A017901E1E0F0E008C0B4
:10038000CF01809FF001819FF00D909FF00D11240F
:100390008C2F9D2FBF010E94C6036017710780F745
:1003A000A12CB12C2CC08C2F9D2FBF010E94C60305
:1003B000362F862E972EC82FD92FCF01B8010E9435
:1003C000C603FB01A114B10429F41814190414F094
:1003D0003097A9F4C7010196AAE08A1691042CF07F
:1003E000C114D10421F027E303C020E301C027E5B5
:1003F000320FD7013C93BFEFAB1ABB0A7C01309799
:1004000091F6F7011082DF91CF911F910F91FF902C
:10041000EF90DF90CF90BF90AF909F908F90089516
:100420009B01992344F49195819591094DE2FB013B
:1004300040832F5F3F4F40E050E06AE070E00E9451
:10044000AC01089590ED980F9A3018F490E0C097A1
:1004500008959FE9980F963020F490E08755910910
:1004600008959FEB980F963018F490E0C797089581
:100470008FEF9FEF08959F92AF92BF92CF92DF923E
:10048000EF92FF920F931F93CF93DF93982E5B0110
:100490007A016901FB01C081D18100E010E00FC049
:1004A000E816F9068CF00E9D90010F9D300D1E9DF3
:1004B000300D11248C01020F131F98802196892D75
:1004C0000E942202992364F7F501D183C083F601CB
:1004D00011830083892DDF91CF911F910F91FF90A0
:1004E000EF90DF90CF90BF90AF909F900895BF9214
:1004F000CF92DF92EF92FF920F931F93CF93DF93F0
:100500006C017B01E801222329F00F2EF0E3BF2EBE
:10051000F02D03C06894BB24B5F8FE0103C0415020
:100520005109F9019F012F5F3F4F8081882349F0D6
:1005300014161506A4F305C06B2DC601F701099525
:10054000A8018A010150110914161506ACF304C064
:10055000C601F7010995E8018E010F5F1F4F688101
:100560006111F6CFDF91CF911F910F91FF90EF9026
:10057000DF90CF90BF9008959F92AF92BF92CF929D
:10058000DF92EF92FF920F931F93CF93DF93CDB73C
:10059000DEB760970FB6F894DEBF0FBECDBF6C011B
:1005A0007B01588B4F878901B5C0653221F0C601A8
:1005B000F7010995AFC01E861D869D012F5F3F4F35
:1005C000388B2F878181803349F42F5F3F4F388BE1
:1005D0002F8711968C919924939401C0912C90EDC2
:1005E000980F9A3050F49E01235F3F4F4AE050E04D
:1005F000BE01615F7F4F0E943B02833609F46BC0EE
:1006000050F4853209F482C0883509F444C0882347
:1006100009F489C07FC0833709F468C018F48436B0
:1006200011F178C0853719F08837A9F173C05801E6
:10063000F2E0AF0EB11C9E012F5F3F4F40E050E053
:100640006AE070E0F801808191810E94AC014D85E3
:100650005E858E010F5F1F4F292DB701C6010E94D5
:100660007702850157C05801F2E0AF0EB11CBE0100
:100670006F5F7F4FF801808191810E9410024D854C
:100680005E858E010F5F1F4F292DB701C6010E94A5
:10069000770285013FC05801F2E0AF0EB11C41E086
:1006A00050E0883511F040E050E09E012F5F3F4F51
:1006B00060E170E0F801808191810E94AC014D857C
:1006C0005E858E010F5F1F4F292DB701C6010E9465
:1006D000770285011FC05801F2E0AF0EB11CF8018E
:1006E0006081C601F7010995850114C05801F2E047
:1006F000AF0EB11CF801008111814D855E8520E0AF
:10070000B701C6010E947702850104C0682FC601A7
:10071000F7010995EF85F889DF011196B88BAF874E
:100720006081611142CF60960FB6F894DEBF0FBEB4
:10073000CDBFDF91CF911F910F91FF90EF90DF9090
:10074000CF90BF90AF909F90089570938500609375
:10075000840090938300809382000895CF93DF9369
:10076000CDB7DEB79E012B5F3F4FF901419151910B
:100770009F0160918400709185008091820090912A
:1007800083000E94BC02DF91CF910895AA1BBB1B7E
:1007900051E107C0AA1FBB1FA617B70710F0A61B81
:1007A000B70B881F991F5A95A9F780959095BC01A2
:0807B000CD010895F894FFCF7C
:1007B80054696D65723120436F756E743A202564F3
:1007C800004144432D56414C55453A2025640000CC
:00000001FF
