S016000053686966744F7065726174696F6E2E737265635F
S11300000C942A000C9434000C9434000C943400A6
S11300100C9434000C9434000C9434000C9434008C
S11300200C9434000C9434000C9434000C9434007C
S11300300C9434000C9434000C9434000C9434006C
S11300400C9434000C9434000C9434000C9434005C
S11300500C94340011241FBECFE5D4E0DEBFCDBF25
S11300600E9436000C9456000C9400008FEF87BB5E
S113007014BA83B3982F990F98BB2FEF3CE241E356
S113008091E02150304040409040D9F700C000003A
S1130090869588BB2FEF3CE241E381E0215030405C
S11300A040408040D9F700C00000E3CFF894FFCF70
S9030000FC
