S015000054696D6572436F756E746572352E73726563F9
S11300000C942A000C943C000C943C000C943C008E
S11300100C943C000C943C000C943E000C943C006A
S11300200C943C000C943C000C943C000C943C005C
S11300300C943C000C943C000C943C000C943C004C
S11300400C943C000C943C000C943C000C943C003C
S11300500C943C0011241FBECFE5D4E0DEBFCDBF1D
S113006020E0A0E6B0E001C01D92A136B207E1F79E
S11300700E944F000C946E000C9400001F920F928B
S11300800FB60F9211248F93809160008F5F80933D
S113009060008F910F900FBE0F901F90189587B33B
S11300A0816087BB88B3816088BB8FB588608FBD52
S11300B08BE390E09BBD8ABD89B7806189BF78944A
S11300C08EB583608EBD809160008536E0F310921A
S11300D0600098B381E0892788BBF5CFF894FFCFFF
S9030000FC
