:100000000C942A000C9434000C9434000C943400AA
:100010000C9434000C9434000C9434000C94340090
:100020000C9434000C9436000C9434000C9434007E
:100030000C9434000C9434000C9434000C94340070
:100040000C9434000C9434000C9434000C94340060
:100050000C94340011241FBECFE5D4E0DEBFCDBF29
:100060000E945F000C9463000C9400001F920F929A
:100070000FB60F9211248F939F9395B381E0892738
:1000800085BB82B7895782BF9F918F910F900FBE1A
:100090000F901F90189584B38FEF84BB15BA8AB365
:1000A000807F8ABB8BB38F608BBB83B7816083BF3C
:1000B00089B7816089BF82B7895782BF08950E943E
:0A00C0004B007894FFCFF894FFCFB7
:00000001FF
