S00E0000416D704953522E737265630A
S11300000C942A000C943C000C943C000C943C008E
S11300100C943C000C943C000C94A8000C943C0000
S11300200C943C000C943C000C943C000C943C005C
S11300300C943C000C943C000C943E000C943C004A
S11300400C943C000C943C000C943C000C943C003C
S11300500C943C0011241FBECFE5D4E0DEBFCDBF1D
S113006020E0A0E6B0E001C01D92AA36B207E1F795
S11300700E9498000C9424020C9400001F920F928A
S11300800FB60F9211242F933F934F935F936F9367
S11300907F938F939F93AF93BF93EF93FF9384B119
S11300A095B19093610080936000609160007091BD
S11300B0610080E090E00E94290120E030E040EA05
S11300C050E40E94B70120E030EC4FE754E40E9472
S11300D0B700609362007093630080936400909310
S11300E0650060916200709163008091640090915A
S11300F0650020E030E040EA50E40E94B7016093DC
S11301006600709367008093680090936900FF9184
S1130110EF91BF91AF919F918F917F916F915F917B
S11301204F913F912F910F900FBE0F901F901895F4
S113013080E487B98FE886B978948EB589608EBDDE
S11301408FEA94E09BBD8ABD89B7806189BFFFCFE8
S11301501F920F920FB60F9211248F9386B1806471
S113016086B98F910F900FBE0F901F9018950E9423
S1130170CB000C947D010E94760158F00E946F011F
S113018040F029F45F3F29F00C94660151110C945E
S1130190B1010C946C010E948E0168F39923B1F3B0
S11301A0552391F3951B550BBB27AA276217730799
S11301B0840738F09F5F5F4F220F331F441FAA1F2D
S11301C0A9F335D00E2E3AF0E0E832D091505040E9
S11301D0E695001CCAF72BD0FE2F29D0660F771F97
S11301E0881FBB1F261737074807AB07B0E809F07D
S11301F0BB0B802DBF01FF2793585F4F3AF09E3F02
S1130200510578F00C9466010C94B1015F3FE4F35E
S1130210983ED4F3869577956795B795F7959F5F44
S1130220C9F7880F911D9695879597F90895E1E090
S1130230660F771F881FBB1F621773078407BA07EF
S113024020F0621B730B840BBA0BEE1F88F7E0954A
S11302500895E89409C097FB3EF4909580957095B5
S113026061957F4F8F4F9F4F9923A9F0F92F96E9FE
S1130270BB279395F695879577956795B795F11173
S1130280F8CFFAF4BB0F11F460FF1BC06F5F7F4F10
S11302908F4F9F4F16C0882311F096E911C0772322
S11302A021F09EE8872F762F05C0662371F096E82B
S11302B0862F70E060E02AF09A95660F771F881FFA
S11302C0DAF7880F9695879597F9089597F99F67B8
S11302D080E870E060E008959FEF80EC08950024CA
S11302E00A941616170618060906089500240A9497
S11302F012161306140605060895092E0394000C1D
S113030011F4882352F0BB0F40F4BF2B11F460FFAB
S113031004C06F5F7F4F8F4F9F4F089557FD9058D4
S1130320440F551F59F05F3F71F04795880F97FBB5
S1130330991F61F09F3F79F087950895121613066F
S11303401406551FF2CF4695F1DF08C0161617069E
S11303501806991FF1CF86957105610508940895D3
S1130360E894BB2766277727CB0197F908950E9465
S1130370CA010C947D010E946F0138F00E9476013D
S113038020F0952311F00C9466010C946C01112457
S11303900C94B1010E948E0170F3959FC1F3950FE7
S11303A050E0551F629FF001729FBB27F00DB11DF5
S11303B0639FAA27F00DB11DAA1F649F6627B00D85
S11303C0A11D661F829F2227B00DA11D621F739F6E
S11303D0B00DA11D621F839FA00D611D221F749F7C
S11303E03327A00D611D231F849F600D211D822FC3
S11303F0762F6A2F11249F5750409AF0F1F08823EA
S11304004AF0EE0FFF1FBB1F661F771F881F915016
S11304105040A9F79E3F510580F00C9466010C945E
S1130420B1015F3FE4F3983ED4F3869577956795E1
S1130430B795F795E7959F5FC1F7FE2B880F911D40
S10F04409695879597F90895F894FFCFDE
S9030000FC
