S01800004144434368616E6E656C5377697463682E7372656319
S11300000C942A000C9434000C9434000C943400A6
S11300100C9434000C9434000C9434000C9434008C
S11300200C9434000C9434000C9434000C9434007C
S11300300C9434000C9434000C9434000C9434006C
S11300400C9434000C9434000C9434000C9434005C
S11300500C94340011241FBECFE5D4E0DEBFCDBF25
S11300600E945C000C9475000C9400008AB38E7F8F
S11300708ABB8BB38E7F8BBB84B38FEF84BB089515
S113008086B1806486B986B1806886B986B180629B
S113009086B986B1876086B987B1806487B90895C7
S11300A027B197B1207F8F70822B982B97B9349BFF
S11300B0FECF84B195B10895F8940E9440000E9447
S11300C036007894C0E00EC08C2F0E94500085BB8F
S11300D02FEF8EE994E2215080409040E1F700C078
S11100E00000CF5FC33080F3EDCFF894FFCF64
S9030000FC
