:100000000C942A000C943F000C943F000C943F0089
:100010000C943F000C943F000C943F000C943F0064
:100020000C943F000C943F000C943F000C943F0054
:100030000C943F000C943F000C943F000C943F0044
:100040000C943F000C943F000C943F000C943F0034
:100050000C943F0011241FBECFE5D4E0DEBFCDBF1E
:1000600010E0A0E6B0E0ECEDF0E002C005900D92EB
:10007000A636B107D9F70E945C000C946C000C9472
:1000800000008FEF84BB0895AC0120E030E010C089
:10009000FA01E20FF31F908195BB6FE78FE492E1C5
:1000A000615080409040E1F700C000002F5F3F4F5B
:1000B000253031056CF308950E94410080E690E000
:1000C0000E9444002FEF8DE399E42150804090403E
:0C00D000E1F700C00000F2CFF894FFCF71
:0600DC003C4299819900ED
:00000001FF
