S01E0000416E616C6F674469676974616C436F6E7665727465722E737265633E
S11300000C942A000C9434000C9434000C943400A6
S11300100C9434000C9434000C9434000C9434008C
S11300200C9434000C9434000C9434000C9434007C
S11300300C9434000C9434000C9434000C9434006C
S11300400C9434000C9434000C9434000C9434005C
S11300500C94340011241FBECFE5D4E0DEBFCDBF25
S11300600E9450000C9458000C94000087B18064E6
S113007087B986B1876086B986B1806886B90895E4
S113008097B18F70982B97B986B1806486B93699E9
S1130090FECF84B195B108955D9BFECF8CB90895D0
S11300A00E94360080E00E9440000E944C00FACF7B
S10700B0F894FFCFEE
S9030000FC
