:100000000C942A000C9434000C9434000C943400AA
:100010000C9434000C9434000C9434000C94340090
:100020000C9434000C9434000C9434000C94340080
:100030000C9434000C9434000C9434000C94340070
:100040000C9434000C9434000C9434000C94340060
:100050000C94340011241FBECFE5D4E0DEBFCDBF29
:100060000E9436000C944A000C9400001ABA8FE0EB
:100070008BBB8FEF84BB81E085BB85B3809585BB4F
:100080002FE78FE492E1215080409040E1F700C0DB
:080090000000F3CFF894FFCF4C
:00000001FF
