S0090000332E73726563E8
S11300000C942A000C943C000C9447000C943C0083
S11300100C943C000C943C000C943C000C943C006C
S11300200C943C000C943C000C943C000C943C005C
S11300300C943C000C943C000C943C000C943C004C
S11300400C943C000C943C000C943C000C943C003C
S11300500C943C0011241FBECFE5D4E0DEBFCDBF1D
S113006020E0A0E6B0E001C01D92A236B207E1F79D
S11300700E9463000C946E000C94000081B3877F8F
S113008081BB81B38B7F81BB8FEF84BB08951F92AB
S11300900F920FB60F9211248F939F93809160005B
S11300A0909161000196909361008093600080912B
S11300B060009091610085BB9F918F910F900FBE5E
S11300C00F901F9018950E943E00F89485B78C609D
S11300D085BF8BB780688BBF7894FFCFF894FFCF30
S9030000FC
