:100000000C942A000C943C000C943C000C943C0092
:100010000C943C000C943C000C943C000C943C0070
:100020000C943C000C943E000C943C000C943C005E
:100030000C943C000C943C000C943C000C943C0050
:100040000C943C000C943C000C943C000C943C0040
:100050000C943C0011241FBECFE5D4E0DEBFCDBF21
:1000600020E0A0E6B0E001C01D92A236B207E1F7A1
:100070000E94EB000C94F2000C9400001F920F926F
:100080000FB60F9211242F938F939F93809161004D
:1000900082BF109261000EC0809161008F5F8093DB
:1000A00061002FE789EA93E0215080409040E1F71A
:1000B00000C0000080916100893C70F310926000E4
:1000C00067C095B381E0892785BB2FE78FE492E174
:1000D000215080409040E1F700C0000095B382E0DD
:1000E000892785BB2FE78FE492E121508040904023
:1000F000E1F700C0000095B384E0892785BB2FE7B6
:100100008FE492E1215080409040E1F700C0000070
:1001100095B388E0892785BB2FE78FE492E12150D2
:1001200080409040E1F700C0000095B380E189274E
:1001300085BB2FE78FE492E1215080409040E1F7AA
:1001400000C0000095B380E2892785BB2FE78FE4CC
:1001500092E1215080409040E1F700C0000095B34B
:1001600080E4892785BB2FE78FE492E1215080400E
:100170009040E1F700C0000085B3805885BB2FE7B1
:100180008FE492E1215080409040E1F700C00000F0
:1001900080916000883008F494CF9F918F912F91C7
:1001A0000F900FBE0F901F9018958FEF84BB87B3F1
:1001B000886087BB089583B7897F83BF83B78C7FAF
:1001C00083BF83B7836183BF8091610082BF89B79A
:1001D000816089BF0895F8940E94D5000E94DB00D9
:0801E0007894FFCFF894FFCFE3
:00000001FF
