S0130000315F4175666761626520652E7372656351
S11300000C942A000C9434000C9434000C943400A6
S11300100C9434000C9434000C9434000C9434008C
S11300200C9434000C9434000C9434000C9434007C
S11300300C9434000C9434000C9434000C9434006C
S11300400C9434000C9434000C9434000C9436005A
S11300500C94340011241FBECFE5D4E0DEBFCDBF25
S11300600E945B000C945F000C9400001F920F929E
S11300700FB60F9211248F939F9395B381E0892734
S113008085BB9F918F910F900FBE0F901F90189575
S113009084B38FEF84BB15BA8AB3807F8ABB8BB3DA
S11300A08F608BBB83B7896083BF89B7826089BF48
S11300B087E78CBF08950E9448007894FFCFF89496
S10500C0FFCF6C
S9030000FC
