:100000000C942A000C943C000C943C000C943C0092
:100010000C943C000C943C000C943C000C943C0070
:100020000C943C000C943C000C943C000C943C0060
:100030000C943C000C943C000C943C000C943C0050
:100040000C943C000C943C000C943C000C943E003E
:100050000C943C0011241FBECFE5D4E0DEBFCDBF21
:1000600020E0A0E6B0E001C01D92A336B207E1F7A0
:100070000E9477000C9488000C9400001F920F924D
:100080000FB60F9211248F93809162008F5F80933F
:10009000620080916000882329F0809161008F5F69
:1000A000809361008F910F900FBE0F901F90189555
:1000B00083B78D6083BF86E98CBF89B7826089BFB3
:1000C000089580916000882321F085B3826085BB0C
:1000D000089585B3846085BB089584B3866084BB2E
:1000E0008AB38D7F8ABB8BB382608BBB0895F894F3
:1000F0000E946D000E94580078940E946100C99986
:1001000004C081E080936000F8CF10926000F5CFCA
:04011000F894FFCF91
:00000001FF
