:100000000C942A000C943C000C943C000C943C0092
:100010000C943C000C943C000C943C000C943C0070
:100020000C943C000C943C000C943C000C943C0060
:100030000C943C000C943C000C943C000C943C0050
:100040000C943C000C943C000C943C000C94570025
:100050000C943C0011241FBECFE5D4E0DEBFCDBF21
:1000600020E0A0E6B0E001C01D92A036B207E1F7A3
:100070000E9466000C9469000C94000087B38860AD
:1000800087BB8AB38C7F8ABB8BB383608BBB83B700
:10009000886483BF83B7806283BF83B7816083BF77
:1000A00089E38CBF89B7826089BF789408951F92D5
:1000B0000F920FB60F9211248F938CB78F5F8CBF66
:1000C0008F910F900FBE0F901F9018950E943E00C9
:0600D000FFCFF894FFCF02
:00000001FF
