S01F000054657374556562756E673454696D6572436F756E7465722E73726563EA
S11300000C942A000C943C000C943C000C943C008E
S11300100C943C000C943C000C943C000C943C006C
S11300200C943C000C943E000C943C000C943C005A
S11300300C943C000C943C000C943C000C943C004C
S11300400C943C000C943C000C943C000C943C003C
S11300500C943C0011241FBECFE5D4E0DEBFCDBF1D
S113006020E0A0E6B0E001C01D92A136B207E1F79E
S11300700E94D0000C94D7000C9400001F920F92A1
S11300800FB60F9211248F939F938091600082BFCB
S113009095B381E0892785BB9F918F910F900FBE07
S11300A00F901F9018958FEF84BB95B382E089273A
S11300B085BB87B3886087BB089583B78F7B83BF75
S11300C083B7877F83BF83B7836183BF1092600048
S11300D05BC02FE789EA93E0215080409040E1F72C
S11300E000C0000095B384E0892785BB2FE789EA27
S11300F093E0215080409040E1F700C0000095B3A8
S113010088E0892785BB2FE789EA93E02150804066
S11301109040E1F700C0000095B380E1892785BBDA
S11301202FE789EA93E0215080409040E1F700C036
S1130130000095B380E2892785BB2FE789EA93E025
S1130140215080409040E1F700C0000095B380E466
S1130150892785BB2FE789EA93E0215080409040AE
S1130160E1F700C0000085B3805885BB2FE789EA1A
S113017093E0215080409040E1F700C0000080915E
S113018060008F5F8093600080916000863F08F478
S1130190A0CF8091600082BF89B7816089BF089534
S11301A0F8940E9453000E945D007894FFCFF89465
S10501B0FFCF7B
S9030000FC
