:100000000C942A000C9434000C9434000C943400AA
:100010000C9434000C9434000C9434000C94340090
:100020000C9434000C9434000C9434000C94340080
:100030000C9434000C9434000C9434000C94340070
:100040000C9434000C9434000C9434000C94340060
:100050000C94340011241FBECFE5D4E0DEBFCDBF29
:100060000E9436000C9442000C9400001ABA8FEFE4
:1000700084BB89B3837089BB89B38B7F89BB89B308
:0800800085BBF7CFF894FFCF18
:00000001FF
