S00B000050574D2E7372656325
S11300000C942A000C943F000C943F000C943F0085
S11300100C943F000C943F000C943F000C943F0060
S11300200C943F000C943F000C943F000C943F0050
S11300300C943F000C943F000C943F000C943F0040
S11300400C943F000C943F000C943F000C94590016
S11300500C943F0011241FBECFE5D4E0DEBFCDBF1A
S113006010E0A0E6B0E0E4E1F1E002C005900D92FA
S1130070A236B107D9F70E947F000C9488000C9433
S11300800000BB9A8AB3807F8ABB8BB38F608BBB23
S113009083B7886483BF83B7806283BF83B7846078
S11300A083BF809160008CBF89B7826089BF7894D8
S11300B008951F920F920FB60F9211248F93CA992D
S11300C00AC0809160008F3F89F0809160008F5F4B
S11300D0809360000BC0CB9909C080916000882395
S11300E029F08091600081508093600080916000CD
S11300F08CBF8F910F900FBE0F901F9018950E9488
S1130100410087E893E10197F1F700C00000F9CFBF
S1070110F894FFCF8D
S10501143F00A6
S9030000FC
